{
  "_format": "hh-sol-artifact-1",
  "contractName": "SwapTokens",
  "sourceName": "contracts/SwapTokens.sol",
  "abi": [
    {
      "inputs": [],
      "stateMutability": "nonpayable",
      "type": "constructor"
    },
    {
      "anonymous": false,
      "inputs": [
        {
          "indexed": false,
          "internalType": "address",
          "name": "from",
          "type": "address"
        },
        {
          "indexed": false,
          "internalType": "address",
          "name": "to",
          "type": "address"
        },
        {
          "indexed": false,
          "internalType": "uint256",
          "name": "amount",
          "type": "uint256"
        }
      ],
      "name": "swapOccurred",
      "type": "event"
    },
    {
      "inputs": [],
      "name": "poolFee",
      "outputs": [
        {
          "internalType": "uint24",
          "name": "",
          "type": "uint24"
        }
      ],
      "stateMutability": "view",
      "type": "function"
    },
    {
      "inputs": [],
      "name": "routerAddress",
      "outputs": [
        {
          "internalType": "address",
          "name": "",
          "type": "address"
        }
      ],
      "stateMutability": "view",
      "type": "function"
    },
    {
      "inputs": [
        {
          "internalType": "uint256",
          "name": "amountIn",
          "type": "uint256"
        },
        {
          "internalType": "address",
          "name": "inToken",
          "type": "address"
        },
        {
          "internalType": "address",
          "name": "outToken",
          "type": "address"
        }
      ],
      "name": "swapExactInputSingle",
      "outputs": [
        {
          "internalType": "uint256",
          "name": "amountOut",
          "type": "uint256"
        }
      ],
      "stateMutability": "nonpayable",
      "type": "function"
    },
    {
      "inputs": [
        {
          "internalType": "uint256",
          "name": "amountOut",
          "type": "uint256"
        },
        {
          "internalType": "uint256",
          "name": "amountInMaximum",
          "type": "uint256"
        },
        {
          "internalType": "address",
          "name": "inToken",
          "type": "address"
        },
        {
          "internalType": "address",
          "name": "outToken",
          "type": "address"
        }
      ],
      "name": "swapExactOutputSingle",
      "outputs": [
        {
          "internalType": "uint256",
          "name": "amountIn",
          "type": "uint256"
        }
      ],
      "stateMutability": "nonpayable",
      "type": "function"
    },
    {
      "inputs": [],
      "name": "swapRouter",
      "outputs": [
        {
          "internalType": "contract ISwapRouter",
          "name": "",
          "type": "address"
        }
      ],
      "stateMutability": "view",
      "type": "function"
    }
  ],
  "bytecode": "0x60a060405273e592427a0aece92de3edee1f18e0157c0586156473ffffffffffffffffffffffffffffffffffffffff1660809073ffffffffffffffffffffffffffffffffffffffff1681525034801561005757600080fd5b50608051610fbe61008f600039600081816101480152818161020e0152818161038e0152818161045001526105680152610fbe6000f3fe608060405234801561001057600080fd5b50600436106100575760003560e01c8063089fe6aa1461005c5780633268cc561461007a5780634ce4dca5146100985780639d0b14c5146100c8578063c31c9c07146100f8575b600080fd5b610064610116565b6040516100719190610855565b60405180910390f35b61008261011c565b60405161008f91906108b1565b60405180910390f35b6100b260048036038101906100ad9190610933565b610134565b6040516100bf9190610995565b60405180910390f35b6100e260048036038101906100dd91906109b0565b6102ed565b6040516100ef9190610995565b60405180910390f35b610100610566565b60405161010d9190610a76565b60405180910390f35b610bb881565b73e592427a0aece92de3edee1f18e0157c0586156481565b60006101428333308761058a565b61016d837f0000000000000000000000000000000000000000000000000000000000000000866106e2565b60006040518061010001604052808573ffffffffffffffffffffffffffffffffffffffff1681526020018473ffffffffffffffffffffffffffffffffffffffff168152602001610bb862ffffff1681526020013373ffffffffffffffffffffffffffffffffffffffff16815260200142815260200186815260200160008152602001600073ffffffffffffffffffffffffffffffffffffffff1681525090507f000000000000000000000000000000000000000000000000000000000000000073ffffffffffffffffffffffffffffffffffffffff1663414bf389826040518263ffffffff1660e01b81526004016102659190610b6f565b6020604051808303816000875af1158015610284573d6000803e3d6000fd5b505050506040513d601f19601f820116820180604052508101906102a89190610ba0565b91507faefd009167ab669a090033236a3e6e5ed31000ce96889b8b10d8a1dad83136b68484846040516102dd93929190610bcd565b60405180910390a1509392505050565b6000806040518061010001604052808573ffffffffffffffffffffffffffffffffffffffff1681526020018473ffffffffffffffffffffffffffffffffffffffff168152602001610bb862ffffff1681526020013073ffffffffffffffffffffffffffffffffffffffff168152602001428152602001878152602001868152602001600073ffffffffffffffffffffffffffffffffffffffff1681525090507f000000000000000000000000000000000000000000000000000000000000000073ffffffffffffffffffffffffffffffffffffffff1663db3e2198826040518263ffffffff1660e01b81526004016103e59190610ca6565b6020604051808303816000875af1158015610404573d6000803e3d6000fd5b505050506040513d601f19601f820116820180604052508101906104289190610ba0565b91508482101561055d578373ffffffffffffffffffffffffffffffffffffffff1663095ea7b37f000000000000000000000000000000000000000000000000000000000000000060006040518363ffffffff1660e01b815260040161048e929190610cfd565b6020604051808303816000875af11580156104ad573d6000803e3d6000fd5b505050506040513d601f19601f820116820180604052508101906104d19190610d5e565b508373ffffffffffffffffffffffffffffffffffffffff1663a9059cbb3084886104fb9190610dba565b6040518363ffffffff1660e01b8152600401610518929190610dee565b6020604051808303816000875af1158015610537573d6000803e3d6000fd5b505050506040513d601f19601f8201168201806040525081019061055b9190610d5e565b505b50949350505050565b7f000000000000000000000000000000000000000000000000000000000000000081565b6000808573ffffffffffffffffffffffffffffffffffffffff166323b872dd60e01b8686866040516024016105c193929190610bcd565b604051602081830303815290604052907bffffffffffffffffffffffffffffffffffffffffffffffffffffffff19166020820180517bffffffffffffffffffffffffffffffffffffffffffffffffffffffff838183161783525050505060405161062b9190610e88565b6000604051808303816000865af19150503d8060008114610668576040519150601f19603f3d011682016040523d82523d6000602084013e61066d565b606091505b509150915081801561069b575060008151148061069a5750808060200190518101906106999190610d5e565b5b5b6106da576040517f08c379a00000000000000000000000000000000000000000000000000000000081526004016106d190610efc565b60405180910390fd5b505050505050565b6000808473ffffffffffffffffffffffffffffffffffffffff1663095ea7b360e01b8585604051602401610717929190610dee565b604051602081830303815290604052907bffffffffffffffffffffffffffffffffffffffffffffffffffffffff19166020820180517bffffffffffffffffffffffffffffffffffffffffffffffffffffffff83818316178352505050506040516107819190610e88565b6000604051808303816000865af19150503d80600081146107be576040519150601f19603f3d011682016040523d82523d6000602084013e6107c3565b606091505b50915091508180156107f157506000815114806107f05750808060200190518101906107ef9190610d5e565b5b5b610830576040517f08c379a000000000000000000000000000000000000000000000000000000000815260040161082790610f68565b60405180910390fd5b5050505050565b600062ffffff82169050919050565b61084f81610837565b82525050565b600060208201905061086a6000830184610846565b92915050565b600073ffffffffffffffffffffffffffffffffffffffff82169050919050565b600061089b82610870565b9050919050565b6108ab81610890565b82525050565b60006020820190506108c660008301846108a2565b92915050565b600080fd5b6000819050919050565b6108e4816108d1565b81146108ef57600080fd5b50565b600081359050610901816108db565b92915050565b61091081610890565b811461091b57600080fd5b50565b60008135905061092d81610907565b92915050565b60008060006060848603121561094c5761094b6108cc565b5b600061095a868287016108f2565b935050602061096b8682870161091e565b925050604061097c8682870161091e565b9150509250925092565b61098f816108d1565b82525050565b60006020820190506109aa6000830184610986565b92915050565b600080600080608085870312156109ca576109c96108cc565b5b60006109d8878288016108f2565b94505060206109e9878288016108f2565b93505060406109fa8782880161091e565b9250506060610a0b8782880161091e565b91505092959194509250565b6000819050919050565b6000610a3c610a37610a3284610870565b610a17565b610870565b9050919050565b6000610a4e82610a21565b9050919050565b6000610a6082610a43565b9050919050565b610a7081610a55565b82525050565b6000602082019050610a8b6000830184610a67565b92915050565b610a9a81610890565b82525050565b610aa981610837565b82525050565b610ab8816108d1565b82525050565b610ac781610870565b82525050565b61010082016000820151610ae46000850182610a91565b506020820151610af76020850182610a91565b506040820151610b0a6040850182610aa0565b506060820151610b1d6060850182610a91565b506080820151610b306080850182610aaf565b5060a0820151610b4360a0850182610aaf565b5060c0820151610b5660c0850182610aaf565b5060e0820151610b6960e0850182610abe565b50505050565b600061010082019050610b856000830184610acd565b92915050565b600081519050610b9a816108db565b92915050565b600060208284031215610bb657610bb56108cc565b5b6000610bc484828501610b8b565b91505092915050565b6000606082019050610be260008301866108a2565b610bef60208301856108a2565b610bfc6040830184610986565b949350505050565b61010082016000820151610c1b6000850182610a91565b506020820151610c2e6020850182610a91565b506040820151610c416040850182610aa0565b506060820151610c546060850182610a91565b506080820151610c676080850182610aaf565b5060a0820151610c7a60a0850182610aaf565b5060c0820151610c8d60c0850182610aaf565b5060e0820151610ca060e0850182610abe565b50505050565b600061010082019050610cbc6000830184610c04565b92915050565b6000819050919050565b6000610ce7610ce2610cdd84610cc2565b610a17565b6108d1565b9050919050565b610cf781610ccc565b82525050565b6000604082019050610d1260008301856108a2565b610d1f6020830184610cee565b9392505050565b60008115159050919050565b610d3b81610d26565b8114610d4657600080fd5b50565b600081519050610d5881610d32565b92915050565b600060208284031215610d7457610d736108cc565b5b6000610d8284828501610d49565b91505092915050565b7f4e487b7100000000000000000000000000000000000000000000000000000000600052601160045260246000fd5b6000610dc5826108d1565b9150610dd0836108d1565b9250828203905081811115610de857610de7610d8b565b5b92915050565b6000604082019050610e0360008301856108a2565b610e106020830184610986565b9392505050565b600081519050919050565b600081905092915050565b60005b83811015610e4b578082015181840152602081019050610e30565b60008484015250505050565b6000610e6282610e17565b610e6c8185610e22565b9350610e7c818560208601610e2d565b80840191505092915050565b6000610e948284610e57565b915081905092915050565b600082825260208201905092915050565b7f5354460000000000000000000000000000000000000000000000000000000000600082015250565b6000610ee6600383610e9f565b9150610ef182610eb0565b602082019050919050565b60006020820190508181036000830152610f1581610ed9565b9050919050565b7f5341000000000000000000000000000000000000000000000000000000000000600082015250565b6000610f52600283610e9f565b9150610f5d82610f1c565b602082019050919050565b60006020820190508181036000830152610f8181610f45565b905091905056fea2646970667358221220f96b9654408796351dc79f98f362367bcd4a024ea2c659dac81e1c068bb3499064736f6c63430008110033",
  "linkReferences": {},
  "deployedLinkReferences": {}
}