{
  "_format": "hh-sol-artifact-1",
  "contractName": "SwapTokens",
  "sourceName": "contracts/SwapTokens.sol",
  "abi": [
    {
      "inputs": [],
      "stateMutability": "nonpayable",
      "type": "constructor"
    },
    {
      "inputs": [],
      "name": "poolFee",
      "outputs": [
        {
          "internalType": "uint24",
          "name": "",
          "type": "uint24"
        }
      ],
      "stateMutability": "view",
      "type": "function"
    },
    {
      "inputs": [],
      "name": "routerAddress",
      "outputs": [
        {
          "internalType": "address",
          "name": "",
          "type": "address"
        }
      ],
      "stateMutability": "view",
      "type": "function"
    },
    {
      "inputs": [
        {
          "internalType": "uint256",
          "name": "amountIn",
          "type": "uint256"
        },
        {
          "internalType": "address",
          "name": "inToken",
          "type": "address"
        },
        {
          "internalType": "address",
          "name": "outToken",
          "type": "address"
        }
      ],
      "name": "swapExactInputSingle",
      "outputs": [
        {
          "internalType": "uint256",
          "name": "amountOut",
          "type": "uint256"
        }
      ],
      "stateMutability": "nonpayable",
      "type": "function"
    },
    {
      "inputs": [
        {
          "internalType": "uint256",
          "name": "amountOut",
          "type": "uint256"
        },
        {
          "internalType": "uint256",
          "name": "amountInMaximum",
          "type": "uint256"
        },
        {
          "internalType": "address",
          "name": "inToken",
          "type": "address"
        },
        {
          "internalType": "address",
          "name": "outToken",
          "type": "address"
        }
      ],
      "name": "swapExactOutputSingle",
      "outputs": [
        {
          "internalType": "uint256",
          "name": "amountIn",
          "type": "uint256"
        }
      ],
      "stateMutability": "nonpayable",
      "type": "function"
    },
    {
      "inputs": [],
      "name": "swapRouter",
      "outputs": [
        {
          "internalType": "contract ISwapRouter",
          "name": "",
          "type": "address"
        }
      ],
      "stateMutability": "view",
      "type": "function"
    }
  ],
  "bytecode": "0x60a060405273e592427a0aece92de3edee1f18e0157c0586156473ffffffffffffffffffffffffffffffffffffffff1660809073ffffffffffffffffffffffffffffffffffffffff1681525034801561005757600080fd5b50608051610f8361008f600039600081816101480152818161020e0152818161035301528181610415015261052d0152610f836000f3fe608060405234801561001057600080fd5b50600436106100575760003560e01c8063089fe6aa1461005c5780633268cc561461007a5780634ce4dca5146100985780639d0b14c5146100c8578063c31c9c07146100f8575b600080fd5b610064610116565b604051610071919061081a565b60405180910390f35b61008261011c565b60405161008f9190610876565b60405180910390f35b6100b260048036038101906100ad91906108f8565b610134565b6040516100bf919061095a565b60405180910390f35b6100e260048036038101906100dd9190610975565b6102b2565b6040516100ef919061095a565b60405180910390f35b61010061052b565b60405161010d9190610a3b565b60405180910390f35b610bb881565b73e592427a0aece92de3edee1f18e0157c0586156481565b60006101428333308761054f565b61016d837f0000000000000000000000000000000000000000000000000000000000000000866106a7565b60006040518061010001604052808573ffffffffffffffffffffffffffffffffffffffff1681526020018473ffffffffffffffffffffffffffffffffffffffff168152602001610bb862ffffff1681526020013373ffffffffffffffffffffffffffffffffffffffff16815260200142815260200186815260200160008152602001600073ffffffffffffffffffffffffffffffffffffffff1681525090507f000000000000000000000000000000000000000000000000000000000000000073ffffffffffffffffffffffffffffffffffffffff1663414bf389826040518263ffffffff1660e01b81526004016102659190610b34565b6020604051808303816000875af1158015610284573d6000803e3d6000fd5b505050506040513d601f19601f820116820180604052508101906102a89190610b65565b9150509392505050565b6000806040518061010001604052808573ffffffffffffffffffffffffffffffffffffffff1681526020018473ffffffffffffffffffffffffffffffffffffffff168152602001610bb862ffffff1681526020013073ffffffffffffffffffffffffffffffffffffffff168152602001428152602001878152602001868152602001600073ffffffffffffffffffffffffffffffffffffffff1681525090507f000000000000000000000000000000000000000000000000000000000000000073ffffffffffffffffffffffffffffffffffffffff1663db3e2198826040518263ffffffff1660e01b81526004016103aa9190610c34565b6020604051808303816000875af11580156103c9573d6000803e3d6000fd5b505050506040513d601f19601f820116820180604052508101906103ed9190610b65565b915084821015610522578373ffffffffffffffffffffffffffffffffffffffff1663095ea7b37f000000000000000000000000000000000000000000000000000000000000000060006040518363ffffffff1660e01b8152600401610453929190610c8b565b6020604051808303816000875af1158015610472573d6000803e3d6000fd5b505050506040513d601f19601f820116820180604052508101906104969190610cec565b508373ffffffffffffffffffffffffffffffffffffffff1663a9059cbb3084886104c09190610d48565b6040518363ffffffff1660e01b81526004016104dd929190610d7c565b6020604051808303816000875af11580156104fc573d6000803e3d6000fd5b505050506040513d601f19601f820116820180604052508101906105209190610cec565b505b50949350505050565b7f000000000000000000000000000000000000000000000000000000000000000081565b6000808573ffffffffffffffffffffffffffffffffffffffff166323b872dd60e01b86868660405160240161058693929190610da5565b604051602081830303815290604052907bffffffffffffffffffffffffffffffffffffffffffffffffffffffff19166020820180517bffffffffffffffffffffffffffffffffffffffffffffffffffffffff83818316178352505050506040516105f09190610e4d565b6000604051808303816000865af19150503d806000811461062d576040519150601f19603f3d011682016040523d82523d6000602084013e610632565b606091505b5091509150818015610660575060008151148061065f57508080602001905181019061065e9190610cec565b5b5b61069f576040517f08c379a000000000000000000000000000000000000000000000000000000000815260040161069690610ec1565b60405180910390fd5b505050505050565b6000808473ffffffffffffffffffffffffffffffffffffffff1663095ea7b360e01b85856040516024016106dc929190610d7c565b604051602081830303815290604052907bffffffffffffffffffffffffffffffffffffffffffffffffffffffff19166020820180517bffffffffffffffffffffffffffffffffffffffffffffffffffffffff83818316178352505050506040516107469190610e4d565b6000604051808303816000865af19150503d8060008114610783576040519150601f19603f3d011682016040523d82523d6000602084013e610788565b606091505b50915091508180156107b657506000815114806107b55750808060200190518101906107b49190610cec565b5b5b6107f5576040517f08c379a00000000000000000000000000000000000000000000000000000000081526004016107ec90610f2d565b60405180910390fd5b5050505050565b600062ffffff82169050919050565b610814816107fc565b82525050565b600060208201905061082f600083018461080b565b92915050565b600073ffffffffffffffffffffffffffffffffffffffff82169050919050565b600061086082610835565b9050919050565b61087081610855565b82525050565b600060208201905061088b6000830184610867565b92915050565b600080fd5b6000819050919050565b6108a981610896565b81146108b457600080fd5b50565b6000813590506108c6816108a0565b92915050565b6108d581610855565b81146108e057600080fd5b50565b6000813590506108f2816108cc565b92915050565b60008060006060848603121561091157610910610891565b5b600061091f868287016108b7565b9350506020610930868287016108e3565b9250506040610941868287016108e3565b9150509250925092565b61095481610896565b82525050565b600060208201905061096f600083018461094b565b92915050565b6000806000806080858703121561098f5761098e610891565b5b600061099d878288016108b7565b94505060206109ae878288016108b7565b93505060406109bf878288016108e3565b92505060606109d0878288016108e3565b91505092959194509250565b6000819050919050565b6000610a016109fc6109f784610835565b6109dc565b610835565b9050919050565b6000610a13826109e6565b9050919050565b6000610a2582610a08565b9050919050565b610a3581610a1a565b82525050565b6000602082019050610a506000830184610a2c565b92915050565b610a5f81610855565b82525050565b610a6e816107fc565b82525050565b610a7d81610896565b82525050565b610a8c81610835565b82525050565b61010082016000820151610aa96000850182610a56565b506020820151610abc6020850182610a56565b506040820151610acf6040850182610a65565b506060820151610ae26060850182610a56565b506080820151610af56080850182610a74565b5060a0820151610b0860a0850182610a74565b5060c0820151610b1b60c0850182610a74565b5060e0820151610b2e60e0850182610a83565b50505050565b600061010082019050610b4a6000830184610a92565b92915050565b600081519050610b5f816108a0565b92915050565b600060208284031215610b7b57610b7a610891565b5b6000610b8984828501610b50565b91505092915050565b61010082016000820151610ba96000850182610a56565b506020820151610bbc6020850182610a56565b506040820151610bcf6040850182610a65565b506060820151610be26060850182610a56565b506080820151610bf56080850182610a74565b5060a0820151610c0860a0850182610a74565b5060c0820151610c1b60c0850182610a74565b5060e0820151610c2e60e0850182610a83565b50505050565b600061010082019050610c4a6000830184610b92565b92915050565b6000819050919050565b6000610c75610c70610c6b84610c50565b6109dc565b610896565b9050919050565b610c8581610c5a565b82525050565b6000604082019050610ca06000830185610867565b610cad6020830184610c7c565b9392505050565b60008115159050919050565b610cc981610cb4565b8114610cd457600080fd5b50565b600081519050610ce681610cc0565b92915050565b600060208284031215610d0257610d01610891565b5b6000610d1084828501610cd7565b91505092915050565b7f4e487b7100000000000000000000000000000000000000000000000000000000600052601160045260246000fd5b6000610d5382610896565b9150610d5e83610896565b9250828203905081811115610d7657610d75610d19565b5b92915050565b6000604082019050610d916000830185610867565b610d9e602083018461094b565b9392505050565b6000606082019050610dba6000830186610867565b610dc76020830185610867565b610dd4604083018461094b565b949350505050565b600081519050919050565b600081905092915050565b60005b83811015610e10578082015181840152602081019050610df5565b60008484015250505050565b6000610e2782610ddc565b610e318185610de7565b9350610e41818560208601610df2565b80840191505092915050565b6000610e598284610e1c565b915081905092915050565b600082825260208201905092915050565b7f5354460000000000000000000000000000000000000000000000000000000000600082015250565b6000610eab600383610e64565b9150610eb682610e75565b602082019050919050565b60006020820190508181036000830152610eda81610e9e565b9050919050565b7f5341000000000000000000000000000000000000000000000000000000000000600082015250565b6000610f17600283610e64565b9150610f2282610ee1565b602082019050919050565b60006020820190508181036000830152610f4681610f0a565b905091905056fea2646970667358221220f2ad0eaf9686e42102333adfefe0ecec9f2b43e6d6768168f2fd79536bdcd0ab64736f6c63430008110033",
  "linkReferences": {},
  "deployedLinkReferences": {}
}